:020000040800F2
:100000006006002065590008295800082B58000890
:100010002D5800082F580008315800080000000033
:10002000000000000000000000000000335800083D
:1000300035580008000000003758000839580008FB
:10004000895900088D5900089159000895590008F0
:10005000995900089D590008A1590008A5590008A0
:10006000A9590008AD590008B1590008B559000850
:10007000B9590008BD590008C1590008C559000800
:10008000C9590008CD590008D1590008475800083F
:1000900049580008D5590008D9590008DD59000809
:1000A000E1590008E5590008E9590008ED59000830
:1000B000F1590008F5590008F9590008FD590008E0
:1000C000015A0008055A0008095A00080D5A00088C
:1000D000115A00085158000857580008155A0008CE
:1000E000195A00081D5A0008215A0008255A00080C
:1000F000295A00082D5A0008315A0008355A0008BC
:10010000395A00083D5A0008415A0008455A00086B
:10011000495A00084D5A0008515A00085D58000815
:10012000555A0008595A00085D5A0008615A0008DB
:100130002DE9F04F80460FF23060A5B015461E46FF
:10014000D0E90023CDE91223002004910D900DF198
:10015000500A6FF0004900E065190020ADF8020078
:1001600012AB4FF0FF3229460DF1020001F093F877
:100170000446012C04DA2878441EA441E443E40F29
:10018000BDF8020025280CBFA4F1010BA346BBF16A
:10019000010F0EDB2F4617F8011B0498C0470028FB
:1001A000049000F0F3800D98401CBBF1010B0D9002
:1001B000F1D1BDF80200252807D100200790089052
:1001C00009900A900B900C9005E00028C4D10D987E
:1001D000D2E240F0010015F8011F2029F9D02329AF
:1001E0000DD02B2904D02D2906D030290AD00CE0BF
:1001F00040F0020080B2EEE740F00400FAE740F081
:100200000800F7E740F01000F4E72A290ED1316822
:10021000316051F8042B3160002A0F9204D551420D
:1002200040F004000F9180B26D1C11E000210F918D
:1002300009E00F99494505D001EB810302EB430129
:1002400030390F916D1C2A78A2F130010A29F0D3C0
:1002500029782E2903D04FF0FF310E911DE015F8BB
:10026000011F2A2907D1316831606D1C51F8042B18
:1002700031600E9211E000210E9109E00E9949457E
:1002800005D001EB810302EB430130390E916D1C67
:100290002A78A2F130010A29F0D3ADF840000FF21C
:1002A000D040297801F042F808B115F8010B8DF81B
:1002B00042009DF84200682802BF29786829622020
:1002C00005D06C2804BF28786C2803D171208DF8E4
:1002D00042006D1C14A8069015F8014BB4F12500DE
:1002E0002AD01C3800F0D480001F022840F2D080B1
:1002F000133800F0F580093800F0CA80801E00F045
:100300005C81401E00F03581401E022840F2C08012
:10031000001F00F02E81401F00F08B80401E00F077
:10032000DF80401E35D0C01E0BD0801E00F0D8806C
:10033000C01E00F0D58063E125208DF8500001201B
:1003400067E19DF842006C283068306014D050F8A6
:10035000047B306005970E9C002C04D5384600F0D5
:10036000F1FF044606E022460021384601F006F877
:1003700000B1C41B08944DE150F8042B306002A971
:10038000404600F033FA002840F144814FF0FF303E
:10039000F2E1316831603C2451F8040B31600021F6
:1003A000CDE9020114A80590DDE90201069F11B90B
:1003B00008B90E9AB2B10206120FA0EB0212303247
:1003C000D2B2631E3A2AA8BF27320009DA5540EAA2
:1003D0000170090908BF00281C4603D0059AE319DB
:1003E0009A42E8D3E0190590C4F13C010E980891B7
:1003F000814209DA401A0A904FF6EF71BDF84000C9
:100400000840ADF8400005E1002840F103819DF867
:10041000400000F01400102840F0FC800F98079A6C
:10042000801A0A9A801A441A012CC0F2F3800A94A6
:10043000F0E09DF8420062281AD0682806D06A28A9
:100440000CD06C281CD0712808D019E030683060BE
:1004500050F8041B30600D980880DBE03068306095
:1004600050F8042B30600D98C117C2E90001D1E0AB
:100470003068306050F8041B30600D980870C9E097
:100480003068306050F8041B30600D980860C1E09F
:100490003068C01D20F007023260D2E90001083246
:1004A0003260CDE90201002902D507982D210AE02A
:1004B000BDF84000810702D507982B2103E0C00753
:1004C00005D50798202100F80A10401C079014A8B1
:1004D000079908180590214602A800F091FB99E0C1
:1004E0009DF842006C280DD0712818BF6A2809D1E8
:1004F0003068C01D20F007023260D2E900010832E6
:10050000326005E03168316051F8040B3160002140
:10051000CDE902019DF84200682803D1DDE902011E
:1005200080B20BE0622803D1DDE90201C0B205E030
:10053000742818BF7A2804D1DDE902010021CDE931
:1005400002019DF8400000072ED5DDE902010029D7
:1005500008BF002828D044F02000782824D107982C
:10056000302100F80A10401C411C079100F80A4095
:100570001AE09DF84200314600F001F9CDE9020190
:10058000002902DA07982D210AE0BDF84000810712
:1005900002D507982B2103E0C00705D50798202135
:1005A00000F80A10401C079014A807990818059035
:1005B000214602A800F0A0FA2CE09DF842006C2829
:1005C00009D0012007903068306050F8041B30607B
:1005D0008DF850101EE03068306001AA50F8041BFE
:1005E0003060ADF804100020ADF8060002A94FF00D
:1005F000FF300E90404600F0F9F800280AD5C5E615
:1006000025208DF85000012007901CB18AF8014088
:10061000022007900F980799401A0A99401A0899E2
:10062000401A0B99401A0999401A0C99441A9DF8DE
:100630004000400710D42020012C8DF800000BDB77
:10064000274601236A4602A9404600F000FE002822
:100650007FF49CAE7F1EF4D1DDF81CB0BBF1000F1F
:1006600014AF0DD017F8011B0498C0470028049060
:100670003FF48CAE0D98401CBBF1010B0D90F1D1F5
:1006800030208DF800000A9F012F0ADB01236A4603
:1006900002A9404600F0DBFD00287FF477AE7F1E04
:1006A000F4D1DDF820B0059FBBF1000F0DD017F895
:1006B000011B0498C047002804903FF467AE0D98D2
:1006C000401CBBF1010B0D90F1D130208DF80000E2
:1006D0000B9F012F0ADB01236A4602A9404600F066
:1006E000B6FD00287FF452AE7F1EF4D1059808991C
:1006F000DDF824B00F18BBF1000F0DD017F8011B67
:100700000498C047002804903FF440AE0D98401C68
:10071000BBF1010B0D90F1D130208DF800000C9F42
:10072000012F0ADB01236A4602A9404600F08FFD33
:1007300000287FF42BAE7F1EF4D19DF840004007C7
:100740007FF50BAD2020012C8DF80000FFF605ADE4
:1007500001236A4602A9404600F079FD00287FF493
:1007600015AE641EF4D1F8E40000000000000000A3
:10077000686A6C747A4C000025B0BDE8F08F62287E
:1007800026D068281DD06A2808D06C2827D0712868
:1007900004D0742823D07A280CD020E00868C01D2B
:1007A00020F007000860D0E90023083008601946EF
:1007B000104670470A680A6052F8040B0A6000216C
:1007C00070470A680A6052F8040B0A6000B20BE036
:1007D0000A680A6052F8040B0A6040B204E00A6832
:1007E0000A6052F8040B0A60C11770472DE9F44FF4
:1007F0000D4694B0D5F830A0BAF1000F804648BF3E
:100800006FF0004A00F0E6FD696B401801900FF6AA
:100810006C20D0E90023CDE9022395F83800400789
:1008200002D40198412805D240200DF11009019011
:10083000002609E000F0D4FD5FEA0009F8D14FF08E
:10084000FF3056E1AAEB040ABAF1010FC0F2CE80E4
:100850001498018802AA0DF1010000F019FE002889
:10086000044600F1DE801498008810B9641E00F17F
:10087000D880A245C0F2BA806869019922189142D5
:1008800080F0A2806E634042296A401AA969401A2A
:10089000696A401AE969401AA96A461A95F8380047
:1008A000400710D42020012E8DF800000BDB3746C6
:1008B00001236A462946404600F0C9FC002840F062
:1008C000B0807F1EF4D1D5F814B0BBF1000F4F46B5
:1008D0000DD017F8011BA868C0470028A86000F0D9
:1008E000A080E86A401CBBF1010BE862F1D1302026
:1008F0008DF800002F6A012F0ADB01236A46294682
:10090000404600F0A4FC002840F08B807F1EF4D10C
:10091000D5F818B0EF68BBF1000F0CD017F8011B29
:10092000A868C0470028A8607BD0E86A401CBBF1DB
:10093000010BE862F2D130208DF800006F6A012FC0
:1009400009DB01236A462946404600F080FC002866
:1009500067D17F1EF5D1E868A969D5F81CB00F18DA
:10096000BBF1000F0CD017F8011BA868C047002886
:10097000A86056D0E86A401CBBF1010BE862F2D1D6
:1009800030208DF80000AF6A012F09DB01236A4691
:100990002946404600F05BFC002842D17F1EF5D17D
:1009A00095F8380040070DD52020012E8DF8000065
:1009B00008DB01236A462946404600F048FC80BB1C
:1009C000761EF6D100266E61224668690DF101019E
:1009D000484400F06BFD6869201868611498801C19
:1009E0001490801E008800287FF42CAF686B696922
:1009F000401A296A401AA969401A696A401AE969C5
:100A0000401AA96AA0EB010A95F83800400710D4F3
:100A1000BAF1010F0DDB5446A8682021C047A86039
:100A200010B94FF0FF365DE0E86A401C641EE862D2
:100A3000F2D16B694A462946404600F008FC00287E
:100A4000EFD12C6A012C0ADBA8683021C0470028AE
:100A5000A860E6D0E86A401C641EE862F4D1AB6985
:100A6000EA682946404600F0F2FB0028D9D16C6ABA
:100A7000012C0ADBA8683021C0470028A860D0D02C
:100A8000E86A401C641EE862F4D1E868A969EB6971
:100A90000A182946404600F0DAFB0028C1D1AC6AAA
:100AA000012C0ADBA8683021C0470028A860B8D014
:100AB000E86A401C641EE862F4D195F838004007EB
:100AC0000ED5BAF1010F0BDBA8682021C047002822
:100AD000A860A6D0E86A401CBAF1010AE862F3D126
:100AE0006E616E6304A881451CBF484600F01AFD84
:100AF000304615B0BDE8F08F2DE9FA4E05460A469E
:100B00002F696F2A08BF082405D041F020007828FB
:100B100014BF0A2410243C26D5E90001642A18BF1A
:100B2000692A81468A4605D1002903DAD9F10009EC
:100B30006AEB4A0ABAF1000F08BFB9F1000F0CD1F5
:100B4000286B50B9082C36D195F83800000732D5FB
:100B500030203B2687F83B002DE0E31748465146FE
:100B6000224600F01FFDA4FB0023A9EB0202303255
:100B7000D2B2A6F1010B3A2A5E4603DB9DF80030A3
:100B8000513B9A180BF8072081465FEA010A08BF1B
:100B9000B9F1000F03D0E868F1198842DDD3082CC1
:100BA00009D195F83800000705D5F05D302802D04E
:100BB000761E3020F055C6F13C00A861F119E960BD
:100BC000296B884208DA081A28624FF6EF71288FDD
:100BD00008402887BDE8F38E00290ED595F8381017
:100BE00001F01401102908D1696B6A69891A2A6A0F
:100BF000891A0E1A012EA8BF2E62BDE8F38E0000DE
:100C00002DE9F24F04468EB0D4E90001CDE902018E
:100C100004AF9DF8380040F0200BBBF1610F0AD003
:100C2000206B002848BF062004D408BFBBF1670F23
:100C300001D1012020636168C1F30A5040F2FF72C4
:100C400090421CD1080304BF2068002809D103206A
:100C5000A0619DF8380061381A2836D30FF2306150
:100C600008E00320A0619DF8380061381A2829D3D4
:100C70000FF21461E068032200F018FCBEE10128C5
:100C800016DA204600F005FD012811DB00250020C2
:100C9000BBF1610F20D1E168302201F8012B4A1C21
:100CA000E2609DF83820612A0CBF782258220FE0BC
:100CB000626840F2FE3161F31E52451A62604FF0E5
:100CC000FF30E5E70FF2BC51D4E70FF2C051D1E796
:100CD0000A706169891C616110B90026002584E1F0
:100CE000BBF1610F40F09880206B00284CBF21269B
:100CF000461CD4E900ABDDE902010022002300F02C
:100D0000E9FC36B23ABF8BF00040CDE902A0CDE954
:100D100002AB06F101082D1FB8F1010F8DF810206C
:100D20000DF1110736DBDDE902010022002300F09E
:100D3000E9FC2FD21C2102A800F0FCFCDDE9020135
:100D400000F07EFDA8F10708B8F1010F814609DB2C
:100D500000F0A2FD02460B46DDE9020100F0B4FD01
:100D6000CDE90201F81D072105E009F00F0200F8A6
:100D7000012D4FEA2919B9F1010F01DB491EF4D504
:100D8000491E5CBF002200F8012DF9D5C71DB8F13E
:100D9000010FC8DA0DF11100391AB142B8BF0E4681
:100DA00036B230000DF111072FD4884206DA04A9BB
:100DB000411849780829A8BF0F2100DA002104AAA8
:100DC000821800E0761E12F80139401E8B42F9D0DD
:100DD0000F2904D104A941184A78521C4A700028EE
:100DE00002D504AF761C2D1D36B2701E0DD4C1196C
:100DF0000A783032D2B23A2A03DB9DF838303A3BD7
:100E00009A18401E01F80129F2D5206B002840F104
:100E1000EC80701E2063E8E0DDE90201002200237F
:100E200000F058FC3CBF81F00041CDE902012DB239
:100E300047F2975068434B49DFF82C9190FBF1F54E
:100E40002DB2C5F1070ABAF1010F90461CDBDDE9AE
:100E500002675FEACA7007D542464B4630463946BC
:100E600000F0F2FD06460F464046494642464B46D4
:100E70004FEA6A0A00F0E8FDBAF1000F80468946A1
:100E8000E7D1CDE9026724E0CAF1000A0026374F16
:100E900014E05FEACA7007D542464B4630463946F1
:100EA00000F0D2FD06460F464046494642464B46B4
:100EB00000F0CAFD4FEA6A0A80468946BAF1000F7F
:100EC000E7D1DDE9020132463B4600F08FFECDE975
:100ED0000201BBF1660F0CBF05F10A000620216B71
:100EE000DFF88C904618142EA8BF132630208DF8FA
:100EF00010000DF11107012E3CDBDDE9020100F0CD
:100F0000B5FC07F1080104220A23B0FBF3F303EB5D
:100F10008307A0EB4700303001F8010C0A20B3FB37
:100F2000F0F000EB8007A3EB47033033521E01F8CB
:100F3000023DE9D1083E012E01F10807DBDBDDE9C6
:100F4000020100F093FC00F0B1FC02460B46DDE923
:100F5000020100F0B9FC00224B4600F075FDCDE91E
:100F60000201CAE7A0860100000024400000F03F13
:100F700084D797410DF11100381A0DF1110702E0E5
:100F8000401E6D1E7F1C39783029F9D0BBF1660FE9
:100F900002D12DB2691C04E0BBF1650F0CBF012129
:100FA0000021226B8E1836B2B042B8BF064636B268
:100FB00031001AD4814204DAC85D3528A8BF39202F
:100FC00000DA3020CA19521E00E0761E12F80139EC
:100FD000491E8342F9D0392802D1C85D401CC8554A
:100FE000002902D57F1E761C6D1C2DB29DF838108D
:100FF000009533B23A46204600F003F80FB0BDE842
:10100000F08F2DE9F04786B006468A4690461D4689
:1010100000F035FF012D406A376B90F8009002DA3E
:1010200001250FF270284AF02000BDF938406628EB
:1010300008BF641C12D0672876D114F1040F79DB45
:10104000BC4277DA96F83800641C000702D4BD422F
:10105000B8BF2F4624B23F1B48BF002724B2F06818
:10106000B169012C21DA4A1C30230B54012F03DA19
:1010700096F83810090702D502F80090521CB261A8
:10108000E742B8BF7C4224B26142E7197162AF42C5
:10109000B8BF3D46B3692DB2F5612A4641461818DE
:1010A00000F004FA781BB062BAE00818A54216DA1C
:1010B0002A46414600F0FAF9B1696918601B012F10
:1010C000B161706203DA96F83800000705D5F06860
:1010D00001F80090F069401CF061B762A0E0224680
:1010E000414600F0E3F9B06920182D1B012F03DA07
:1010F00096F83810090703D5F16800F80190401CF4
:101100002DB2B061AF42B8BF3D46F068B3692DB2B1
:101110002A4604EB0801181800F0C8F9B06928182D
:10112000B061781B70627BE0BAF1610F14D14FF0AF
:10113000700A16E0BD4204DA96F83810090758BF65
:101140002F467F1E48BF0027BAF1670F14BF4FF02C
:10115000450A4FF0650A04E0BAF1410F08BF4FF0AD
:10116000500AB169F0684A1CB261012F18F8013BBE
:101170000B5403DA96F83810090715D5531CB361E0
:1011800002F80090012F0FDB6D1E2DB2AF42B8BFE9
:101190003D462DB22A464146181800F087F9B0693D
:1011A0002818B061781B7062F068B16909182000D6
:1011B00081F800A004D42B20487001F1020804E05B
:1011C0002D224A7001F102086442002502AF08E0B6
:1011D0000A22684600F06CFE019807F8010B6D1CAE
:1011E000009C21B20129F3DA022D06DA4AF0200030
:1011F000652804BF302008F8010B4DB9302008F8ED
:10120000010B07E06D1E02A8285C303008F8010BC6
:10121000012DF7DAF068B1690818A8EB0000F06159
:1012200096F8380000F0140010280DD17069B169EB
:101230000818716A0818F1690818B16A0818716B02
:101240008842BCBF081A306206B0BDE8F087F8B526
:1012500004460D4616461F46002077B116F8011BBE
:10126000A868A047A86030B1E86A401CE862002086
:101270007F1EF3D1F2BD4FF0FF30F2BD0000000041
:10128000000000006E616E004E414E00696E660007
:10129000494E46003000F8B504460D4616461F4636
:1012A00000F00EFE3B4632462946204601B0BDE81E
:1012B000F04000F01CBEF0B401684468836809186F
:1012C00001EB5402E40748BF4B440C3091422BD051
:1012D00011F8014B14F0030504BF11F8015BED1C7C
:1012E00026090F2E07D111F8016B0F3603E011F814
:1012F000017B03F8017B6D1EF9D1002EE6D0A40816
:1013000011F8015B04F00304032C08BF11F8014B32
:1013100005EB04241C1BB51CD8D014F8016B03F892
:10132000016B6D1EF9D1D1E7F0BC70470278C9B2EC
:101330008A421AB11CBF10F8012FF9E718BF00202C
:101340007047000000F10103810704D010F8011B71
:1013500089B18107FAD10268B2F10131914311F0EC
:10136000803F04BF50F8042FF6E710F8011B11B1BD
:1013700010F8011BFBE7C01A70470000C9B28307D1
:1013800006D0521E22D310F8013B9942F7D11FE03C
:10139000083A13D302F1040241EA012141EA014172
:1013A00050F8043B121F21BF4B40A3F1013C2CEA33
:1013B000030C1CF0803FF3D0C9B2001F083210F8B4
:1013C000013B521E28BF91EA030FF8D818BF012035
:1013D000401E704780B500F073FD012002BD000083
:1013E00070B5054605F10F00C408C046C046E400CC
:1013F000A54232D2082C04D2082402E0083000F0C2
:1014000091F82248026811000CD1011D0A6802B34C
:101410001368A34238BF111DF8D310E01D68A54220
:101420000DD2191D0B68002BF8D11268011D00E0C8
:10143000191D0B6893420CD01D68A542F8D361B109
:101440000D682A68A2F10803A3420AD26A680A60FA
:101450000FE000F06FFD0028D0D1C046C04600204C
:1014600070BD63190B60121B6E685E600B681A60BA
:101470002C60096800291DBF4A68002A091D002147
:101480000160C046C04605F1080070BD080B002091
:1014900070B504460D46164600F012FD3246294648
:1014A0002046BDE8704000F015BD000062B38B0718
:1014B00008D0521E11F8013B00F8013B00F02480D7
:1014C0008B07F6D1830740F0208000BF103A07D386
:1014D00030B4B1E83810103AA0E83810F9D230BC76
:1014E000530724BFB1E80810A0E8081044BF51F822
:1014F000043B40F8043BD20724BF31F8022B20F80C
:10150000022B44BF0B7803707047083A07D3B1E849
:101510000810083A40F8043B40F804CBF7D25307D0
:10152000E4E7000000B9704738B5A0F1080420686E
:10153000082833D310F0070F30D1C046C0461848F2
:10154000416809B18C4203D26160446017E01946DA
:101550004B680BB1A342FAD30B685D18AC421BD3A6
:10156000A54204D12268D2180A600C4607E04A68F6
:101570001AB123681B199A420ED362604C606168ED
:1015800051B1226813198B4206D100230360086809
:101590008018206048686060C046C04631BD0000C9
:1015A000080B00201B4213D1094236D12AB18446D0
:1015B000B0FBF2F002FB10C2704700F0D1BCFCD3CC
:1015C0000022002370470B0002000021002070471A
:1015D000904271EB030CF6D370B5B1FA81F4B3FA13
:1015E00083F52C1BA340C4F1200532FA05F63343E2
:1015F000A2405FF00046E64002E05B085FEA32028C
:10160000841A71EB030524BF204629467641F4D3A2
:1016100002000B003000002170BD012ACFD970B547
:10162000140C20D0B1FA81F4B2FA82F5C4F120048E
:101630006419B4F12006D6D3B2405FF00044F44000
:10164000002502E052085FEA3303C61A71EB020E6E
:1016500024BF3046714664416D41F3D302000B0054
:101660002000290070BD0C46B1FBF2F102FB1145D0
:101670002D0445EA1045B5FBF2F402FB145580B287
:1016800040EA0545B5FBF2F002FB105240EA044087
:1016900070BD30B4436803F0004201211B031B0BF3
:1016A000436004BF0368002B08D10DE00368DD0F21
:1016B00045EA440444605B000360491E4468E30259
:1016C000F4D523031B0B436043681A43426008466A
:1016D00030BC70474FF4001C1CEB410F94BF1CEB57
:1016E000430F09E041EA030C50EA4C0C52EA0C0C9F
:1016F00003D2994208BF9042704714BF8B42824286
:10170000704700004FF4001C1CEB410F94BF1CEB12
:10171000430F09E041EA030C50EA4C0C52EA0C0C6E
:1017200003D28B4208BF8242704714BF9942904255
:101730007047000070B504460D466068C0F30A505B
:1017400040F2FF71884207D16068000304BF20683F
:10175000002817D0022070BD20B92046FFF799FF5E
:10176000012866DA012D0FDB40F2FF71091A8D4264
:101770000AD36068002847BF00202F4900202F4966
:10178000C4E90001012070BD4142A942616806DA46
:101790006FF31E51401941EA0050606040E0401E66
:1017A00063684519012205F1350062F31F5335289E
:1017B00001F00041636003D361600020206070BDD0
:1017C000002015F11F0F04DA206823600022203565
:1017D00062606A4212D0401E25688041C2F1200337
:1017E000C0439D4045EAD07025686668D54006FA3A
:1017F00003F32B4323606368D340636062680A434A
:10180000B0F1004F626003D80DD12078C0070AD52F
:101810002068401C2060206828B96068401C606017
:101820004FF0FF3070BD6068884204BF2068002818
:10183000F6D1002070BD00BF0000F0FF0000F07F77
:10184000F446400D40EAC120490006D200F014F8E9
:10185000004248BF6FF00040604700F00DF84FF0C5
:10186000004188428CBF084640426047400D40EA34
:10187000C120490080F00D8040F00040490DA1F5E5
:101880008061491C05D4D1F11F0154BFC840C01765
:1018900070474FF000007047010040F10980F446A6
:1018A000404200F005F851F000416047010000BFE0
:1018B00009D0B0FA80F18840C91CC1F584610905DE
:1018C00001EBD02140057047F0B44FF0004591EA9C
:1018D000030F44BF6B4000F04FBB00BF841A71EB95
:1018E000030604D26E40001BB141121973414FF43C
:1018F000001C1CEB410F34BF7CEB430684E00C0D55
:10190000A4EB1356362E7DDC012E43DC45EAC323BF
:1019100043EA525312BFD20292025B08240545EA01
:10192000C12141EA5051D2EBC020994125D407D1C1
:10193000B0FA80F610FA06F164D00020203608E0F4
:10194000B1FA81F6B140C6F1200220FA02F2114349
:10195000B0404FEAF474B4EB465434F001064FEA59
:1019600074040AD8D6F50016760D04F00044F04051
:1019700061FA06F25040F1404840C00A40EA415046
:1019800021F0004128BF5FEA500550F1000044EB10
:10199000D12137E045EAC323DB0A45EAC121C90A60
:1019A000B6F120050EDD42EA0242120CC5F1200616
:1019B00003FA06F6EB4042EA06056D42984161F1F2
:1019C00000010DE062FA06F5F240554063FA06FCAC
:1019D00082EA0C02F3405A406D42904161EB0301F0
:1019E00011F4801F05D1641E620502D06D004041D4
:1019F000494121F48011430875F1004350F1000082
:101A000041EB0451F0BC70471CEB410F15D223F0A1
:101A1000004352EA43060BD04FEA4C0CBCEB410F9B
:101A200004D80C0D661E342EB7DDEBE7801A994101
:101A300050EA410608BF0021E4E708BF1CEB430F52
:101A400028BF6FF00001DDE7B0B581EA030C0CF0B0
:101A5000004C40F2FF7515EA11541DBF15EA1357EB
:101A6000AC42AF4239E0E41923EA455343F4801312
:101A7000C90241F0004141EA505EC7021100A7FBD4
:101A8000020200284FF00000EEFB01204FF00001A1
:101A9000E3FB072118BF42F0010240180021494131
:101AA000E3FB0E01A4F580640F0302D25200404113
:101AB000494154F101046CDD470872F1004250F1D4
:101AC000000051EB0451A1F580115CBF41EA0C010B
:101AD000B0BD4CEA05510020B0BD05EA1357AC4239
:101AE00014BFAF4241E050EA410E1CBF52EA430E20
:101AF00002E061460020B0BD24423C441BD15FEAB5
:101B0000070EF6D0090302BF01460020AEF1140E05
:101B1000B1FA81F7AEEB070401FA07FE0C37C7F103
:101B2000200100FA07F7C8404EEA000E23EA4553A9
:101B300043F48013A2E733F00043B3FA83F704BF02
:101B4000B2FA82FE77440B3FE41BB7F1200E2FBFA1
:101B500002FA0EF3BB40C7F1200E22FA0EFE38BF88
:101B600043EA0E03BA40641C82E750EA410E14BFF8
:101B700052EA430E6FF000014FF4001717EB430FCA
:101B80008ABF194617EB410FB5E74CEA0551002013
:101B9000B0BDD4F10104B4F120070FDAC4F120077D
:101BA000520828BF42F0010210FA07F501FA07F7C0
:101BB000E1BF2A43E0403843E1400FE0352C98DC98
:101BC000C7F1200452EA400220FA07F218BF42F09F
:101BD000010231FA07F0A1400A43002172F10042EC
:101BE00050F1000051EB0C01B0BD00002DE9F041B7
:101BF00040F2FF7581EA030C0CF0004C15EA115419
:101C00001DBF15EA1357AC42AF42E9E0BC41C1F336
:101C10001301C3F31303801A994143F4801304D2D0
:101C2000641E4000494180185941C90241EA50519F
:101C3000B1FBF3F603FB1611A2FB0675D7EBC02030
:101C4000A94102D2761E80185941C90241EA505179
:101C5000B1FBF3FE03FB1E11A2FB0E75D7EBC020F8
:101C6000A94103D2AEF1010E80185941890241EA1F
:101C70009051760546EA8E2EB1FBF3F603FB161162
:101C8000A2FB0675D7EB8020A94102D2761E8018F0
:101C90005941C90241EA50514EEA060EB1FBF3F632
:101CA00003FB1611A2FB0675D7EBC020A94102D297
:101CB000761E80185941C90241EA5051B1FBF3F731
:101CC00003FB1711A2FB0735D3EBC020A94167F135
:101CD00000070CBF004247F0010766F3D5274FEA23
:101CE0001E31B80814F5806414DDBD0775F100429B
:101CF00050EB0E5051EB045111F5801F5CBF41EACF
:101D00000C01BDE8F0814CF07F6141F0E041002022
:101D1000BDE8F081BD076D0840EA0E5041F4801126
:101D2000D4F10104B4F120060ADAC4F1200602005D
:101D3000E04001FA06F3E1401843B24015430EE0DB
:101D4000342C14DCC6F1200445EA40056D0820FA65
:101D500006F2154321FA06F0A1400D43002175F16A
:101D6000004250F1000051EB0C01BDE8F081002071
:101D70005FEA0C01BDE8F081CFB992185B41B3FA7C
:101D800083F704BFB2FA82F6BF190B3FB7F1200602
:101D90002FBF02FA06F3BB40C7F1200622FA06F66F
:101DA00038BF3343BA401CB1E419641E2FE77F42A9
:101DB00031F00041B1FA81F404BFB0FA80F6A41901
:101DC0000B3CB4F120062FBF00FA06F1A140C4F18C
:101DD000200620FA06F638BF3143A0403C1B16E728
:101DE000AC421ABF05EA1357AF4214E050EA41066D
:101DF0001CBF52EA4306BFE750EA4107304661463E
:101E00001CBF41EA0551BDE8F08152EA430C08BF0E
:101E1000C143BDE8F08100204FF4001616EB410FDE
:101E200098BF16EB430F08BF16EB410F24BFC14309
:101E300005E016EB430F0CBF61464CEA0551BDE8C7
:101E4000F081000080B5134800F000F90FF24C0259
:101E50000FF244010160426241600FF2440282636A
:101E600081600FF24402C160016141618161816260
:101E7000C16201634163C2630164416401BD10B585
:101E8000044800F0E3F80446206808B9FFF7DAFFD9
:101E9000204610BD64010020000000002E0000005C
:101EA00066616C7365000000747275650000000067
:101EB00091FBF2F303FB1211C0E9003170470000FF
:101EC00080B5DFF80C0000F0C1F8806902BD0000A9
:101ED000F401002030B430B90FF24800D0E90045D9
:101EE000C2E900451BE00170012030BC704730B4EE
:101EF00031B90FF23800D0E90045C3E900450EE0E2
:101F00001AB930BC6FF00100704708B10A7802803E
:101F10000978481E804130BCC043C00F7047002084
:101F200030BC70470000000000000000000000000E
:101F3000000000000749086808B100207047064803
:101F4000C008C00008600549C908C900091A016035
:101F5000704700BF440A0020670600206008002088
:101F600070470000F0B44FF0004591EA030C44BF05
:101F70006B40FFF7B3BC00BF841A71EB030603D2BA
:101F8000001BB141121973414FF4001C1CEB410FAF
:101F900034BF7CEB430443E00C0DA4EB1356352E09
:101FA00050DC45EAC323DB0A45EAC121C912B6F178
:101FB00020050DDD63FA05F6EB4086EA03051242C3
:101FC00018BF45F00105C01851F100010CD213E013
:101FD00062FA06F5F2405540F3415A40B340F340EF
:101FE0005A408018594107D349085FEA30005FEA38
:101FF000350528BF45F0010501F58011420875F14E
:10200000004250F1000041EB0451F0BC4FF4001CC1
:102010001CEB410F38BF70470020090D09057047C0
:102020001CEB410F10D252EA43060BD0BCEB410F20
:1020300005D80C0DAB43661E342EB5DD02E0AB4374
:1020400080185941F0BC7047F0BC704770470000E1
:1020500010B582B004468DF800004FF47A73012267
:102060006946DFF8B80B00F07BFE204616BD38B598
:10207000DFF8AC5BDFF8AC4B40F22760A8600A20C9
:1020800001F031F9606F286040F2DC550A2001F060
:102090002AF9DFF8940B05600A2001F024F9DFF833
:1020A0008C1B042008600220DFF8841B08600520D8
:1020B000DFF8801B0860656731BD0068DFF8781BBA
:1020C000884212D1DFF8741BDFF8580B0968012928
:1020D00002D1016F491C0167816F491C3D2981674D
:1020E00003DB0021816701F015B970472DE9F04F3E
:1020F00091B04FF03330DFF8481BDFF8484BCDE9A3
:10210000060101F0BBF800F0A9FCDFF83C0B016808
:1021100041F0200101600022016801F020010491DA
:102120000499016841F004010160016801F00401B3
:1021300004910499016841F008010160016801F00F
:10214000080104910499016841F0100101604FF405
:102150008071006800F0100004900498204601F09F
:10216000D9F94FF480700090694601200190002059
:10217000029002200390204601F002F94FF48060A3
:10218000009069460020019002904FF49644DFF8D9
:10219000BC0A01F0F5F8DFF8841ADFF8B40A086029
:1021A0004C6000208860C86008610C2048610020F5
:1021B0008861C861084600F09DFD00B1FEE7DFF8C8
:1021C000946A06F1280002900299DFF88C0A4867A9
:1021D000029884670020029906F1A804C86720606D
:1021E00060600C20A0600020E060206106F19C008F
:1021F000039000F07FFD00B1FEE7DFF8281ADFF85A
:102200005C0A086000208860C86048614FF4602064
:10221000C8610020486001200861084601F09CF96F
:1022200000B1FEE701200890099008A907200A9054
:10223000DFF8F00901F02AFB00B1FEE700F0A9FC8D
:1022400000F050FCDFF8180A60634FF4E130A0633F
:102250000020E063206460640C20A0640020E0643F
:10226000206506F1DC00049000F044FD00B1FEE7BB
:102270000299DFF8F00908630920029948630020F9
:10228000029988630299C8634FF4A02002990864F8
:10229000002002994864029988640299C8640299EE
:1022A000086502994865029988650299C86506F132
:1022B000580001F0E5FB00B1FEE7DFF87C0960673C
:1022C00006F5947741F61F40A0670020E06706F509
:1022D0008E7442F20F7038600020F860204601F0E2
:1022E000EFFD00B1FEE700F0F7FC00B1FEE7DFF81C
:1022F00078590821284601F022FE0421284601F0E1
:102300001EFE0021284601F01AFE0021DFF85C09BC
:1023100001F015FE204601F0E0FD08A80021002292
:1023200006C01FE0DFF8F818086000F04FFB00F06F
:102330005AFB04D200F044FB00F055FB05D3DFF854
:1023400030090068002800F01D82DFF828190020FD
:102350000860FFF78CFEDFF8181900200860DFF82E
:10236000DC18086006F5C870059001460122DFF808
:10237000AC0800F0A3FD4FF48061DFF8D00802F054
:10238000ABF800F029FB002864D103E0022818BF55
:102390000C2802D0815D30398155401C1328F5DBB3
:1023A00000F007FB00F046FB00F0FCFA00F0D7FA63
:1023B00000F03BFB00F0E7FA00F0D1FA00F030FB50
:1023C00000F0DDFA00F0CBFA00F025FB00F011FB85
:1023D00000F0C5FA00F01AFB00F0CDFA00F0BFFAE9
:1023E00000F00FFB00F0C3FA00F0B9FA00F027FB91
:1023F00000F0D0FA00F0D6FA00F0A3FA8046B07BE5
:1024000000F0CAFA00F0BFFA00F09BFA8046F07BB9
:1024100000F0C2FA00F0B3FA00F093FA8046307C84
:1024200000F0BAFA00F0E5FA00F08BFA8046707C12
:1024300000F0B2FA00F09FFA00F083FA8046B07C18
:1024400000F0AAFA00F093FA00F07BFA00F07DFAAF
:1024500000F06FFA00F0D1FADFF81C0800680128DC
:102460004FD10AA81C2102F045F8DFF81038DFF838
:10247000AC07072208A900F0C3FC0028F5D10AAA7E
:1024800001E0012804D008A9415C303942F820104D
:10249000401C0728F5DB0A98FFF7FEF904460C9864
:1024A00000F084FA00F07EFA00F059FA04460D9824
:1024B00000F07CFA00F067FA00F051FA04460E983A
:1024C00000F074FA00F05BFA00F049FA04460F9845
:1024D00000F06CFA00F08DFA00F041FA0446109812
:1024E00000F064FA00F047FA00F039FACDE906018D
:1024F000DFF8841700200860DDE906235DA001F005
:10250000FDFFDFF83807006801287FF42BAF1322A6
:10251000DFF86837DFF8040706F1140100F070FCFB
:102520000028F4D181198219097D3432401C1173BD
:10253000303909281170F5DB002081198219497F93
:1025400082F84C10401C30390A2882F82810F4DB3D
:102550000298029A007B527B0A2101FB0020FFF7C0
:102560009BF904460298C07B00F019FA00F01AFAB1
:1025700000F0F5F904460298007C00F010FA00F033
:1025800002FA00F0ECF904460298407C00F007FAE9
:1025900000F0F5F900F0E3F904460298807C00F0C1
:1025A000FEF900F026FA00F0DAF904460298C07C41
:1025B00000F0F5F900F0DFF900F0D1F904460298D7
:1025C000007D00F0ECF900F0D2F900F0C8F9C7E99D
:1025D0001601029A0298527800780A2364215A431D
:1025E00001FB0020029989780818FFF755F9044685
:1025F0000298007900F0D3F900F0D4F900F0AFF9B7
:1026000004460298407900F0CAF900F0BCF900F0E5
:10261000A6F904460298807900F0C1F900F0AFF9FC
:1026200000F09DF904460298C07900F0B8F900F076
:10263000E0F900F094F904460298007A00F0AFF94E
:1026400000F099F900F08BF904460298407A00F006
:10265000A6F900F08CF900F082F9C7E91801DFF85B
:10266000C01540F20E60886000F0B6F90028FBD17A
:1026700006E000BF256C6600022818BF0C2802D0B7
:10268000815D30398155401C1328F5DB00F091F94C
:1026900000F0D0F900F086F900F061F900F0C5F91A
:1026A00000F071F900F05BF900F0BAF900F067F999
:1026B00000F055F900F0AFF900F09BF900F04FF988
:1026C00000F0A4F900F057F900F049F900F099F989
:1026D00000F04DF900F043F900F0B1F900F05AF9BB
:1026E00000F060F900F02DF98046B07B00F054F95D
:1026F00000F049F900F025F98046F07B00F04CF934
:1027000000F03DF900F01DF98046307C00F044F9FE
:1027100000F06FF900F015F98046707C00F03CF98C
:1027200000F029F900F00DF98046B07C00F034F992
:1027300000F01DF900F005F900F007F900F0F9F8D4
:10274000D7E91601D7E91845C7E91201C7E90E45CF
:10275000D7E91423FFF7B8F8D7E910238046894654
:1027600020462946FFF7B0F842464B4601F0D8FE16
:1027700000F0F9F880468946FFF779FCDFF8F41499
:10278000012008600599DFF89404012200F096FB0F
:102790004FF4FA7303981322314600F031FB0028FE
:1027A000F6D103E0022818BF0C2802D0815D303931
:1027B0008155401C1328F5DB00F0FBF800F03AF9D6
:1027C00000F0F0F800F0CBF800F02FF900F0DBF8A3
:1027D00000F0C5F800F024F900F0D1F800F0BFF8DF
:1027E00000F019F900F005F900F0B9F800F00EF961
:1027F00000F0C1F800F0B3F800F003F900F0B7F80A
:1028000000F0ADF800F01BF98246707B00F0BFF8D5
:1028100000F0C8F800F091F88246B07B00F0B7F8FD
:1028200000F0B1F800F089F88246F07B00F0AFF8D4
:1028300000F0A5F800F081F88246307C00F0A7F89F
:1028400000F0D7F800F079F88246707C00F09FF82D
:1028500000F091F800F071F88246B07C00F097F833
:1028600000F085F800F069F800F06FF800F061F80A
:10287000DFF8B003006F032811DB00F0A1F8044675
:102880000D4600F0A3F822462B4601F049FE00F069
:102890006AF889468046DFF88C130020086700F04C
:1028A000ACF802460B4640464946FFF70DF8DDE915
:1028B0000623FFF7C9F84FF0FF32DFF8C433FEF705
:1028C00009FF04460D4603D20020DFF8B81308E0E4
:1028D0000122DFF8B433FEF715FF06D80020DFF839
:1028E000AC1300F03CF804460D46DFF83803406FA7
:1028F000FEF7D2FF82468B460020DFF89413224673
:102900002B46FFF7A1F800F018F8FEF799FFC5492C
:10291000486740F2C671884203DB0846C1494867F0
:1029200000E540F2F3318842FADABE4940F2F23073
:10293000F5E71321304601F0DDBD52465B46FFF757
:1029400011BB42464B46FFF70DBBC7E91001CDE96D
:10295000000122462B460FF2943001F0CFBD2246F3
:102960002B46FFF7FFBACB4ACB4BFFF76DB8CB4AEC
:10297000CB4BFFF769B8CB4ACB4BFFF765B8CB4AD7
:10298000CB4BFFF761B8CB4ACB4BFFF75DB88B461B
:10299000FEF78CBF8046707B8946FEF787BF0D46E9
:1029A000FEF784BFC54AC64BFFF74EB80D46FEF78B
:1029B00073BF307872780A2101FB0020FEF76CBFEC
:1029C000D7E91201D7E91423FEF77EBFD7E90E013C
:1029D000D7E91023FEF778BF03984FF4FA73132258
:1029E000314600F00DBA21F00041B64AB64BFEF771
:1029F00071BEB64AB44BFFF727B80499874801F077
:102A0000F5BD0446307A0D46FEF750BF0446F07916
:102A10000D46FEF74BBF0446B0790D46FEF746BFA4
:102A2000044670790D46FEF741BF044630790D46E5
:102A3000FEF73CBF0446F0780D46FEF737BFB27A8A
:102A40000A235A430446707A0D46642101FB002094
:102A5000C7E91445F17A0818FEF71EBF00B595B016
:102A600001200B9000210D914FF480300C9001213A
:102A700013900F914FF4E0100221149012910BA8C3
:102A800001F070FE00B1FEE70F200090022102204D
:102A90000190002002904FF4806003900020049089
:102AA000684601F0CCFF00B1FEE7022005904FF42C
:102AB0000040079005A802F0ADF800B1FEE702F073
:102AC00074F84FF47A71B0FBF1F002F0CCF9042005
:102AD00002F0DDF9002200214FF0FF3002F09CF9F6
:102AE00015B000BD10B54F4C794894B02063472015
:102AF00060630020A06344F61F60E0630020206450
:102B00006064A06404F1300001F0DAF900B1FEE77E
:102B10004FF48050109010A904F1300001F036FB02
:102B200000B1FEE704F1300001F0F7F900B1FEE773
:102B300000900190694604F1300002F0F4F900B110
:102B4000FEE760200990002200200A900B900C9074
:102B50000D900E900F9009A904F1300001F0ABFA2E
:102B600000B1FEE70290039004900590069002A940
:102B70004FF4005007900020089004F1300002F05C
:102B8000A9F900B1FEE704F1300002F0C3FA14B075
:102B900010BD10B5344C4F488EB0206047206060A7
:102BA0000020A06044F61F60E06000202061A0616A
:102BB000204601F085F900B1FEE74FF480500990FE
:102BC00009A9204601F0E2FA00B1FEE7204601F033
:102BD000A4F900B1FEE700F07FF800B1FEE7602045
:102BE00002900022002003900490069000F07AF8F2
:102BF00000B1FEE7042200F075F800B1FEE70822FC
:102C000000F070F800B1FEE70C2200F06BF800B1A4
:102C1000FEE7204602F07EFA0EB010BDC80A002082
:102C20003404004024000020342C01401C0100200A
:102C300014010020180100200014004008010020A9
:102C40003333D33F00100140181002400008014008
:102C5000003801406008002000440040002401408A
:102C60000048004000640040880A00205400002012
:102C7000100100200C01002020010020A08601008E
:102C8000FF7F66C00080764000806640008076C08E
:102C90000000244046DF617EDCA54C408DEDB5A0F0
:102CA000F7C6B03EF168E388B5F8E43EFCA9F1D27E
:102CB0004D62503F7B14AE47E17A843F9A999999CF
:102CC0009999B93F2E431CEBE2361A3F2D431CEB7A
:102CD000002C01400004004000900190694620460D
:102CE00002F021B902A9204601F0E5B967256C661A
:102CF000256C660038B5050001D1012032BD05F113
:102D00003804607818B92070284602F028FA00F0DC
:102D100011F800F007F821F02A01FFE7416100F007
:102D200013F832BD2868016921F4904101612868D7
:102D300041697047242060702868C16821F40051FF
:102D4000C160284600F027BA2868C16841F40051E4
:102D5000C1600020606020206070A070002070477B
:102D60002DE9F843044604F138070D467878202809
:102D70001646984641D1002D14BF002E01203DD0AB
:102D80003878012839D0012038700020786021205F
:102D9000787000F0A5FAA6848146E68403E02168F5
:102DA00015F8010B4860E08CC0B1E08C401EE08457
:102DB00000F079F80DD100F07DF8B8B928882168C5
:102DC000C005C00D48602069002814BF6D1CAD1CF3
:102DD000E9E700F06FF80028E1D007E0CDF80080C7
:102DE0004B460022402100F067F808B1032005E0BF
:102DF000202078700020387000E00220BDE8F283C7
:102E00002DE9F843044604F138070D46B878202828
:102E10001646984644D1002D14BF002E012040D004
:102E2000387801283CD001203870002078602220BA
:102E3000B87000F055FAA6858146E68503E0C00526
:102E4000C00D25F8020BE08D28B3E08D401EE08513
:102E500000F029F80DD10022202100F02DF868B9EA
:102E60002069002820684068E9D0C0B225F8010B2D
:102E7000E9E70022202100F01FF808B1032010E04C
:102E8000206900282068406802D105F8010BDAE7C4
:102E900000F07F00F9E72020B8700020387000E0D3
:102EA0000220BDE8F2834B46A068CDF80080B0F563
:102EB000805F7047002280212046E0E010B500F1DD
:102EC00038039C78202C22D1002918BF002A01D178
:102ED000012010BD1C78012C19D001241C708162C6
:102EE0008285C285002159602221997000211970C4
:102EF0000168CA6842F48072CA6001684A6942F097
:102F000001024A610068C16841F0200101E002202D
:102F100010BDC160002010BDC16020684169490832
:102F2000490041617047416921F040014161606B96
:102F3000704738B5044623681868D9685A6910F094
:102F40000F0F07D182065CD58A065AD52046BDE808
:102F50003240D5E0D50702D411F4907F51D0C30799
:102F600005D5CB0503D5E36B43F00103E3634307CA
:102F700005D5D30703D5E36B43F00203E36383076F
:102F800005D5D30703D5E36B43F00403E3630307DD
:102F900005D5D20703D5E26B42F00802E263E26B8B
:102FA000002A69D0800604D5880644BF204600F078
:102FB000A7F820684069E16B090701D440061AD5DB
:102FC000204600F087F82068416949060FD5FFF7D1
:102FD000AAFF60B10FF219114163606B02F05EF954
:102FE000002849D0606B416BBDE83440084720465B
:102FF00000F044F831BD204600F040F80020E063C6
:1030000031BD02062AD50A0628D594F839002128B0
:1030100032D1A068B0F5805F206A0BD10088C0056E
:10302000C00D586020690028206A0CBF801C401C1D
:10303000206203E0411C216200785860E08C401E51
:10304000E08480B2C0B92068C16821F08001C1600D
:103050002068C16841F04001C16031BD40060BD518
:10306000480609D5D86820F04000D860202084F8B0
:103070003900204600F001F831BD704770472DE956
:10308000F041069E04460D4690461F4620680068A3
:103090002840A8420CBF01200020404517D116F15E
:1030A000010FF3D026B100F01BF9C01B8642EDD210
:1030B0002068C16821F4D071FFF72EFF04F13800B9
:1030C00020214170817000210170032000E0002068
:1030D000BDE8F0810168CA6822F49072CA60016894
:1030E0004A69520852004A61202180F83A1070471C
:1030F00080B5406A0021C185C184FFF7BFFF01BDD3
:1031000080B590F83A10222938D18168B1F5805FF6
:1031100011D10269816A002A0268526805D1D2057C
:10312000D20D0A80816A891C03E0D2B20A80816ACA
:10313000491C81620FE001690029816A04D14A1C9F
:1031400082620268526805E04A1C82620268526824
:1031500002F07F020A70C18D491EC18589B259B93A
:103160000168CA6822F02002CA6000F009F8202134
:1031700080F83A1002F020F9002002BD022002BDC2
:103180000168CA6822F48072CA6001684A695208FC
:1031900052004A6170472DE9F047044664252068D3
:1031A0000169E26821F44051114301611926C168A7
:1031B000304A1140A26811432269114362691143E8
:1031C000C1604169A26921F44071114341612A49FA
:1031D00088420ED101F0F4FC074601F0F1FC804674
:1031E00001F0EEFC814601F0EBFC824601F0E8FCC8
:1031F0000DE001F0DDFC074601F0DAFC804601F04D
:10320000D7FC814601F0D4FC824601F0D1FC06FBDC
:1032100008F361688900B3FBF1F306FB07F206FBD4
:1032200009F7B7FBF1F7B7FBF5F705FB17331B0100
:103230003233B2FBF1F2B3FBF5F3B2FBF5F203F07C
:10324000F00303EB0212704306FB0AF3B0FBF1F04C
:10325000B3FBF1F3B0FBF5F005FB103000013230A9
:10326000B0FBF5F0216800F00F0080188860BDE821
:10327000F0870000F3E9FFFF0038014080B52248E5
:10328000016841F010010160032001F0B8FD002049
:1032900000F004F801F06EFE002002BD38B51B4DB1
:1032A000297804464FF47A70B0FBF1F018490968A8
:1032B000B1FBF0F001F0D7FD50B9102C08D200227C
:1032C00021464FF0FF3001F0A7FDAC60002032BD79
:1032D000012032BD0D4841680278511841607047A5
:1032E0000A484068704738B50446FFF7F9FF14F103
:1032F000010F054602D0054800780419FFF7F0FFDA
:10330000401BA042FAD331BD00200240EC00002057
:10331000F800002010B5044600F0A6F94FF47A71C9
:10332000204600F0C6F9E8B9204600F0ACFAFEF7F6
:10333000BDFA4FF066320C4BFEF786FB00220B4BBA
:10334000FEF782FB00220A4BFEF77EFB0022094BB0
:10335000FEF74CFCBDE8104002460B460FF2180089
:1033600001F0CCB810BD000066660A400000303F96
:10337000008059400000344062252E316C66000008
:103380002DE9F8474FF0000E0022644BDFF89081E2
:10339000DFF890914FF00F0A012707FA02F60F6845
:1033A0003740B74240F0AA804C685CB3012C1AD079
:1033B000022C1FD0032C31D0112C17D0122C1DD071
:1033C000594DAC421CBF594DAC421BD0584DAC427C
:1033D0001CBF584DAC4215D0574DAC421CBF574D89
:1033E000AC420FD01CE0D1F80CE019E0CC6804F13D
:1033F000040E15E0CC6804F1080E11E0CC6804F16D
:103400000C0E0DE08C6814B94FF0040E08E0012C8E
:103410004FF0080E14BF4661066101E04FF0000E48
:10342000FF2F02D88446940004E0A2F1080400F1C2
:10343000040CA400DCF800500AFA04F6B5430EFAB6
:1034400004F42C43CCF800404C68E40056D5D9F87D
:10345000004044F00104C9F800404FEA920CD9F84A
:10346000005005F001040094009C58F82C5002F024
:103470000304A4000AFA04F6B543314EB04208BF73
:10348000002618D02F4EB04208BF012613D02E4E72
:10349000B04208BF02260ED02C4EB04208BF032611
:1034A00009D02B4EB04208BF042604D0294EB042AA
:1034B0000CBF0526062606FA04F42C4348F82C40D7
:1034C000FD434C68E4031C684CBF3C432C401C602B
:1034D0004C68A4035C684CBF3C432C405C604C6867
:1034E000E4029C684CBF3C432C409C604C68A402A6
:1034F00047BFDC682743DF682F40DF60521C102A7B
:10350000FFF44AAFBDE8F1878068084018BF01208A
:10351000C0B2704702B9090401617047000401405C
:1035200008000140181002400000111000001210A5
:1035300000002110000022100000311000003210A5
:1035400000080140000C014000100140001401403F
:1035500000180140001C0140F8B504460025002673
:10356000002C7AD004F12407786820B9B86038704C
:10357000204601F049FD204600F058FA7968C90656
:103580006CD400286AD17968DFF8642421F488516A
:1035900041F00201796021689142E26904BFB2F50D
:1035A000402F4FF40022D4F804C0E36842EA0C0232
:1035B000D4F808C0BCF5807F14BFBCF1010F4FF4F4
:1035C0008075D4F814C0BCF1010F42EA43020FD158
:1035D00033B9A3695B1E5B0343F400631D4307E03B
:1035E0007B6843F020037B60BB6843F00103BB6052
:1035F0004B6823F469432B434B602168DFF8F45395
:103600008B682B4013438B60A168B1F5807F18BF96
:10361000012902D12169491E0E052168CB6A23F4D4
:1036200070033343CB622168DFF8CC3389681940DB
:10363000914208D10021B960796821F0020141F07E
:1036400001017960F2BD786820F0020040F01000BE
:103650007860B86840F00100B86003E0786840F036
:10366000100078600120F2BD70B500F0F0F801D1D3
:10367000022070BD00F0DCF8002819D16968DFF87D
:103680007C2300F0D9F80DD10E6816F4702F09D004
:1036900000F0B5F800F0C1F846BFAB6823F00603B0
:1036A000002302E000F0A5F8F4E700F0AEF8D4E063
:1036B0009CE02DE9F04182B00446002000900D46C8
:1036C000FFF70EFE064620688168C90504F124074D
:1036D00007D5786840F0200078600020387001201D
:1036E00082E04168C90512D4C06A10F4700F0ED18F
:1036F0002068006880075CD415F1010FF8D0002D18
:103700004FD0FFF7EDFD801B8542F1D249E002204A
:1037100001F0EEFA2168DFF8E8E2D1F810C0DFF836
:10372000E422DFF8E4321CEA0E0F02BFD1F80CC02D
:10373000DFF8D8E21CEA0E0F09D1D1F810C01CEA5C
:10374000030F05BFC96811422921142112E0D1F8E5
:1037500010C01CEA030F04BFCB68134207D00B69EB
:10376000DFF8AC22134204BFC968114201D15421D1
:1037700000E0FC21DFF89C221268B2FBF0F001FBB4
:1037800000F802E00098401C00900098404510D2DC
:1037900015F1010FF6D025B1FFF7A2FD801B854280
:1037A000F0D2786840F00400786000203870032080
:1037B0001AE021686FF012000860786840F4007029
:1037C0007860206800F054F904BFE06800280AD14E
:1037D000786820F4807078607868C00403D47868D2
:1037E00040F0010078600020BDE8F68100212970DA
:1037F00070BD6E6826F480166E605B6870476B68FB
:1038000043F480136B600B687047AB6000232B7030
:103810006FF0020325682B6070475B0505D56B6868
:1038200023F4005343F480536B606B68DB047047F0
:10383000012028702046A6E0114041F480716960A3
:103840002368DFF8D421DFF8D4119342704704468F
:1038500004F1240528780128704723689C6804F443
:103860006024B4F5602F09D1934203D1096811F4A3
:10387000702F03D1996841F4A00102E0996841F4E6
:103880008011996070BD0068C06C7047F8B50A4639
:10389000002100F1240300911C78012C01D10220A9
:1038A000F2BD01241C701F26576814680568072F95
:1038B00008D27F1E07EB8707D5F834C000F05DF80B
:1038C0006C6312E00D2F08D2FF1F07EB8707D5F8B6
:1038D00030C000F052F82C6307E00D3F07EB87077C
:1038E000D5F82CC000F049F8EC62072716689568F7
:1038F00004680A2E08D30A3E06EB4606D4F80CC02C
:1039000000F035F8E56006E006EB4606D4F810C096
:1039100000F02DF825611468102C18BF112C22D14D
:1039200000683F4CA04219D13E48046824021AD4D2
:10393000046844F4000404601068102813D135486A
:10394000394A0068B0FBF2F00A2250430090009818
:1039500000281CBF0098401EF8D104E0586840F0D1
:10396000200058600121002018700846F2BDB740C1
:103970002CEA0707B5403D437047BE402CEA0606D7
:10398000BC403443704738B504460020009020689E
:103990008168C90729D4816841F0010181601D480F
:1039A00021490068B0FBF1F001E00098401E009052
:1039B00000980028F9D1FFF793FC0546206880683D
:1039C000C00712D4FFF78CFC401B0328F6D304F188
:1039D0002400416841F010014160816841F001011B
:1039E000816000210170012032BD002032BD000045
:1039F000003C0140FDF7E1FFFE0E1FFFFEFDFFFF53
:103A00002449922492244900922449122449920084
:103A100049922400F80000200028014004240140BD
:103A2000002401400824014040420F0038B50446FC
:103A300020688168C90719D58168490849008160F3
:103A4000FFF74EFC054620688068C0070ED5FFF7DB
:103A500047FC401B0328F6D3A06A40F01000A06288
:103A6000E06A40F00100E062012032BD002032BD7A
:103A7000806800F46020B0F5602F704700000000FF
:103A8000F8B504460026002C6BD004F13C052878DC
:103A900018B96870204601F0D2FA00F064F8206886
:103AA000016841F001010160FFF71AFC0746206838
:103AB0004168C90705D4FFF713FCC01B0B28F6D3D8
:103AC00041E04168C9074AD5A169012908BF80269C
:103AD000E169012908BF46F04006216A012908BFB3
:103AE00046F02006616A012908BF46F01006A16A67
:103AF000012908BF46F00806E16A012908BF46F01F
:103B00000406016821F0FC0131430160A068E1680E
:103B1000084321690843616908436168491E0843F5
:103B20002168C86120680168490849000160FFF701
:103B3000D7FB074620684168C90707D5FFF7D0FBC8
:103B4000C01B0B28F6D300F016F8F2BD4068C00782
:103B500005D400206860012028700020F2BD0420F8
:103B600028700120F2BD022028702068016821F031
:103B70000201016070470320287000206870032054
:103B80007047F8B5044600202268D368002100255C
:103B90005669DB0605D5330703D510234FF40075AE
:103BA000D360226813695669DB0605D5730603D511
:103BB000102345F48065136104F13C0622685369C3
:103BC000DB0748D597686A4B1F409F4208BF01201A
:103BD0009768664B1F409F4208BF01219768624B60
:103BE0001F409F420CBF012300230843184332D0DB
:103BF000906891684008490A936800F0010001F05C
:103C00000101084303F0010108431DD05069400839
:103C1000400050613078122804D12068416921F4B5
:103C20000F4141613078422808D0522804D07228D0
:103C30000CBF6220012002E0322000E02220307020
:103C4000204600F09FF801E045F400652068494AED
:103C50008168114381602068C168406911F00301E7
:103C600005D0800703D50021204600F08EF820689B
:103C70000169406911F0030105D0C00603D5012197
:103C8000204600F082F8706828437060206800F0D9
:103C900075F8C90707D5D10505D5190403D571688D
:103CA00041F00101716000F069F8890707D59105BD
:103CB00005D5190403D5716841F00201716000F067
:103CC0005DF8490707D5510505D5190403D5716875
:103CD00041F00401716000F051F801F07001491EDB
:103CE0008941C90F2FD111052DD519042BD5816913
:103CF00001F0700110290AD020290CD030290ED0F3
:103D0000402910D0502912D0602914D017E07168D2
:103D100041F0080112E0716841F010010EE0716895
:103D200041F020010AE0716841F0400106E071684D
:103D300041F0800102E0716841F480717160816935
:103D400021F070018161706860B121680A4A042025
:103D5000486001203070206841691140416120466F
:103D600000F012F8F1BD0000000001100001000891
:103D70000100000409050100A470FFFF8169426988
:103D80004369704770477047704738B50468002929
:103D900004EB01140CBF426B826BD4F8B04114F0F9
:103DA00004049460056805EB0115D5F8B04107BF20
:103DB000640D1460E4085460046804EB0114D4F842
:103DC000B04104F00204D46000F068F8116204F01D
:103DD0000F04146100F062F8C4F30724D46100F00A
:103DE00069F8147500F066F8240A547500F062F85A
:103DF000240C947500F05EF8240ED47500F054F88D
:103E0000147600F051F8240A547600F04DF8240C92
:103E10009476046804EB0113D3F8BC311B0ED376FF
:103E2000026831B92023D3600268536923F00A0382
:103E300005E0202313610268536923F050035361A6
:103E400090F83C20222A18BF322A04D10268536914
:103E500023F40F435361002990F83C100AD1422902
:103E60000FD0622902D0722902D010E032210FE077
:103E700052210DE0522904D0622904D0722904D0C5
:103E800005E0122104E0222102E0422100E00121AC
:103E900080F83C10FFF777FF002032BD046804EB88
:103EA0000114D4F8B4417047046804EB0114D4F849
:103EB000BC417047046804EB0114D4F8B841704762
:103EC00038B5040001D1012032BD00F033F818B933
:103ED0002870204601F0ECF80AE00068C16841F063
:103EE0000101C160016841F00101016000207047DB
:103EF00002206870211D206800F0B5F9012068706B
:103F0000002032BD03D1416C41F40041416401689D
:103F100041F001010160002010BD38B5040001D15D
:103F2000012032BD00F006F818B92870204600F0D4
:103F300005F8DDE704F13C0568787047704710B577
:103F400000F007F800F00AF81CBFDFF81C108842E8
:103F5000D8E704460122206800F0B1BA2068DFF8F3
:103F600028128842704700000034014010B5044612
:103F700020680169890716D5C168890713D56FF0D4
:103F80000201016101212177806910F0030F2046B1
:103F900002D000F065F904E000F061F9204600F07D
:103FA00060F90020207720680169490716D5C168AB
:103FB000490713D56FF0040101610221217780695F
:103FC00010F4407F204602D000F04AF904E000F0EF
:103FD00046F9204600F045F9002020772068016965
:103FE000090716D5C168090713D56FF008010161EB
:103FF00004212177C06910F0030F204602D000F0A1
:104000002FF904E000F02BF9204600F02AF90020F7
:10401000207720680169C90616D5C168C90613D57D
:104020006FF01001016108212177C06910F4407F11
:10403000204602D000F014F904E000F010F9204608
:1040400000F00FF90020207720680169C90708D522
:10405000C168C90705D56FF0010101612046FEF76F
:104060002CF820680169090608D5C168090605D53C
:104070006FF080010161204600F07BFF206801693C
:10408000490608D5C168490605D56FF040010161B0
:10409000204600F0E7F82068016989060AD5C16862
:1040A000890607D56FF0200101612046BDE8104068
:1040B00000F05EBF10BD70B5064606F13C040D462B
:1040C0002078012801D1022070BD00F058F832B1EB
:1040D000042A14D0082A24D00C2A32D042E03068B6
:1040E00000F0FDF83068816941F0080100F043F804
:1040F00021F0040100F03FF82A6911430FE0306815
:1041000000F016F93068816941F4006100F033F87D
:1041100021F4806100F02FF82A6941EA02218161CF
:1041200020E0306800F034F93068C16941F00801DE
:1041300000F01DF821F0040100F019F82A6911437C
:104140000FE0306800F056F93068C16941F4006151
:1041500000F00DF821F4806100F009F82A6941EAC5
:104160000221C161012060700020207070BDC1611A
:104170003068C1697047816130688169704701208A
:104180002070022060707047002C014038B500F0AC
:104190005BF801D1022032BDFFF7F1FFDFF89C325E
:1041A000286882681A4082600868002837D0102882
:1041B00037D0202837D0302837D040282BD050286F
:1041C0001ED0602820D070280BD0B0F5805F03D0BF
:1041D000B0F5005F0CD02CE028688168C908C900E0
:1041E0000CE000F02CF82868816841F0770105E0C8
:1041F00000F025F82868816841F48041816018E06A
:1042000000F019F8502111E0CA684968286800F0E8
:1042100032F960210AE000F00EF8402106E00021AA
:1042200004E0102102E0202100E03021286800F0A5
:1042300034F90FE00000CA68496828680AE1CB68D1
:104240004A688968286830E1054605F13C04207811
:1042500001287047012060700020207032BD704737
:10426000704770477047F0B50468754B754A764DD6
:10427000764E774F984218BF904208D0B0F1804FE9
:1042800018BFB84203D0B04218BFA8420FD1D1F82E
:1042900004C0984224F0700418BF90424CEA040411
:1042A00007D0B0F1804F1CBFB842B04201D0A84245
:1042B00003D1CD6824F440742C434D6924F080046C
:1042C0002C43046098428C68C4620C68846212BFFC
:1042D00090420969016301214161F0BD0000F0B520
:1042E000026A574E520852000262046A42688369A9
:1042F00000F07AF824F002042C43524DB04218BF6B
:10430000A84207D1CF6824F008043C43B04224F00F
:10431000040401D0A84205D14D6922F440722A4319
:104320008D692A4342608361496841630462F0BD3C
:10433000F0B5026A424E22F010020262B042046AF4
:10434000426883690D6823F4E64343EA05238D68D8
:1043500024F0200444EA05143A4D18BFA84208D1BD
:10436000CF6824F0800444EA0714B04224F04004EB
:1043700001D0A84206D14D698E6922F440623543CE
:1043800042EA850242608361496881630462F0BD4C
:10439000F0B5026A2A4E22F480720262046A426810
:1043A000C36900F021F824F4007444EA0524254D83
:1043B000B04218BFA84208D1CF6824F4006444EA90
:1043C0000724B04224F4806401D0A84206D14D698C
:1043D0008E6922F44052354342EA05124260C361BD
:1043E0004968C1630462F0BD0D6823F073032B4379
:1043F0008D68704730B5026A22F480520262026A08
:104400004368C4690D6824F4E64444EA05248D68D1
:1044100022F4005242EA0532094DA8421CBF094D60
:10442000A84204D14D6923F4804343EA85134360D5
:10443000C46149680164026230BD00008800FFFF6A
:10444000002C014000340140000C004000080040F6
:104450000004004010B5036A046A64086400046242
:10446000846924F0F00444EA0212826123F00A0213
:104470001143016210BD10B5036A23F010030362FB
:104480008369046A23F4704343EA0232826124F0B0
:10449000A00242EA0111016210BD826822F070029E
:1044A000114341F007018160704710B5846824F41E
:1044B0007F442143114341EA0321816010BD10B5BF
:1044C000036A01248C40A343036202FA01F1036AE8
:1044D0001943016210BD000010B5FFF715F8044C38
:1044E00001280CBF44F620600020206010BD00BFF2
:1044F00038040040002200F0F1BF00000EB400B507
:1045000082B003A9009102466B460121034878441A
:104510000A30FBF70DFE06BC5DF810FB2514000009
:1045200038B50FB4DDE9020100F0F1FF0546DDE921
:10453000000100F0ECFF0246012DB8BF012A2CDA81
:104540000198002807D5DDE9000181F00041CDE99F
:104550000001082400E000240398002807D5DDE9C5
:10456000020181F00041CDE9020184F00604DDE999
:104570000201DDE90023FDF7ADF802D2FDF736FBBD
:1045800027E0002D06D5DDE90001DDE90223FDF776
:104590002DFB20E0002000211DE0022A08BFDDE9FC
:1045A00000011ED0022D08BFDDE9020119D095429D
:1045B00007BF00200C4900200021019B002B4CBFAD
:1045C00008240024039B002B48BF84F00604012A22
:1045D00001D184F00204224605B0BDE8304000F06D
:1045E000AFBF05B030BD00BF0000F03F2DE9F04F78
:1045F0000846554E85B00A23192206F10801FEF738
:10460000FFFB0024A14600208119097A2C2902BF52
:10461000641C022C8146401C1928F5DB09EB0600BE
:1046200000F1090105223046FCF740FF307932786D
:10463000464CDFF81C91A0F130010291A2F1300B41
:10464000F578A5F1300103914FF00A08B178A1F196
:10465000300A7178A1F1300764212D2A2AD12E2841
:104660000FD13763C6F834A00398B06308FB0AF093
:1046700001FB0700B16B08184042FDF70DF9C6E9D0
:104680000A012E2D33D13763C6F834A00298B063E7
:1046900008FB07A0FDF700F9CDE90001B06BFDF7BD
:1046A000FBF800F05BF8DDE90023FDF75BFC81F02F
:1046B00000411AE02E2D1AD1C6F830B07763C6F843
:1046C00038A00298F06308FB07F001FB0B00504490
:1046D000FDF7E2F8CDE90001F06BFDF7DDF800F041
:1046E0003DF8DDE90023FDF73DFCC6E90A01B0789D
:1046F0002E2824D1C6F830B077630398B0630298AF
:10470000F06308FB0B70FDF7C7F80746B06B0D466A
:10471000FDF7C2F800F022F83A462B46FDF722FCDE
:104720000446F06B0D46FDF7B7F80A4A0A4BFDF751
:104730008BF922462B46FDF715FCC6E90A01D6E99E
:104740000A0105B0BDE8F08F480A00209A999999AE
:104750009999B93F7B14AE47E17A843F22464B4694
:10476000FDF772B92DE9F8430446DFF86854207864
:10477000C00747D5686800F00C00042807D06868B7
:1047800000F00C0008280AD16868C00307D5286823
:10479000800337D56068002834D1012049E1606882
:1047A000B0F5803F09D008B928680AE0B0F5A02F1D
:1047B000286806D140F480202860286840F48030C2
:1047C00005E020F480302860286820F480202860EC
:1047D000606858B1FEF784FD07462868800311D44D
:1047E000FEF77EFDC01B6528F7D31FE1FEF778FDBD
:1047F00007462868800305D5FEF772FDC01B6528B3
:10480000F7D313E12078DFF8D863800718D56868FC
:1048100010F00C0F07D0686800F00C00082825D1B4
:104820006868C00322D42868800702D5206901285F
:10483000B3D12868616920F0F80040EAC10028601F
:10484000207800073ED5A169DFF89803002965D0DC
:1048500001210160FEF744FD0746686A800722D403
:10486000FEF73EFDC01B0328F7D3DFE0206968B1E7
:1048700001203060FEF734FD074628688007D8D451
:10488000FEF72EFDC01B0328F7D3CFE03060FEF704
:1048900027FD074628688007D2D5FEF721FDC01BFB
:1048A0000328F7D3C2E0DFF830030068C0084FF4F4
:1048B0007A71B0FBF1F0009000BF0098411E002813
:1048C0000091F9D1207840076FD5E869C0004FF01A
:1048D00000080AD4E86940F08050E8614FF0010810
:1048E000E86900F0805000900098DFF8FC92D9F859
:1048F0000000C0051FD4D9F8000040F48070C9F84A
:104900000000FEF7EDFC0746D9F80000C00512D400
:10491000FEF7E6FCC01B6528F6D387E00160FEF7D2
:10492000DFFC0746686A8007CCD5FEF7D9FCC01BC0
:104930000328F7D37AE0E068012808D008B9286A8C
:1049400009E00528286A06D140F004002862286A98
:1049500040F0010005E0400840002862286A20F08D
:104960000400286241F28939E06858B1FEF7B8FCCA
:104970000746286A800711D4FEF7B2FCC01B4845E1
:10498000F7D353E0FEF7ACFC0746286A800705D54D
:10499000FEF7A6FCC01B4845F7D347E0B8F1000F6F
:1049A00003D0E86920F08050E861E06900283FD03A
:1049B000696801F00C0108293FF4EFAE02282AD102
:1049C00000F039F807462868800105D5FEF788FC15
:1049D000C01B0328F7D329E0206AB0F5803F05D13A
:1049E0006868A16820F40030084368606868216A3C
:1049F00020F474100843616A08436860012000F0E5
:104A00001BF807462868800112D4FEF769FCC01B1A
:104A10000328F7D30AE000F00EF807462868800163
:104A200006D5FEF75DFCC01B0328F7D3032000E08A
:104A30000020BDE8F28300203066FEF751BC2DE96E
:104A4000F8436A4E04463068884600F00700404547
:104A500002D200F079F852D120785E4F800705D558
:104A60007868A16820F0F000084378602078C007DB
:104A70003DD56068012802D13968890303E0022826
:104A8000396802D1890102D439E0890737D57968BC
:104A9000890840EA8100786041F28939FEF720FCFC
:104AA0000546606801280AD1786800F00C000428E7
:104AB0001DD0FEF715FC401B4845F5D315E0022834
:104AC0000AD1786800F00C00082810D0FEF708FC26
:104AD000401B4845F5D308E0786810F00C0F06D06D
:104AE000FEF7FEFB401B4845F6D303202AE0306862
:104AF00000F00700804504D200F026F801D0012024
:104B000020E02078400705D57868E16820F4E0606F
:104B1000084378602078000706D57868216920F47A
:104B2000605040EAC100786000F018F87A683049B7
:104B3000C2F30312515CC840274908600020FEF709
:104B4000ADFB0020BDE8F2833068C00848EAC00031
:104B50003060306800F007004045704710B586B0FF
:104B600001A80FF29C011022FCF7B0FC0FF2A0008C
:104B700020490088ADF800000A68184802F00C03CC
:104B8000082B10D101ABC2F38344D203E35C08D5F8
:104B900009686A46C1F340415843895CB0FBF1F0B3
:104BA00001E01548584306B010BD0B480068704737
:104BB0000948104A006812681049C2F3022206E050
:104BC00005480C4A006812680C49C2F3C222515CC5
:104BD000C840704700100240F800002000127A0020
:104BE0000000424280044242007000400020024027
:104BF000185800080410024000093D0080590008C0
:104C000002030405060708090A0B0C0D0E0F10100D
:104C1000010200002DE9F041044682B02078664D83
:104C2000C00750D5A8690026C00009D4A86940F083
:104C30008050A8610126A86900F08050009000987B
:104C40005E4F3868C00510D4386840F48070386012
:104C5000FEF746FB80463868C00506D4FEF740FBE9
:104C6000A0EB08006528F6D320E0E86910F4407056
:104C70001EBF616801F44071884219D05049E8694B
:104C800001220A6020F4407000220A60E861C00737
:104C90000ED5FEF725FB0746E869800708D4FEF726
:104CA0001FFBC01B41F289318842F5D303201DE070
:104CB000E869616820F440700843E8611EB1A869A2
:104CC00020F08050A8612078800705D52868A16869
:104CD00020F44040084328602078C00605D52868A5
:104CE000616920F48000084328600020BDE8F68157
:104CF00030B585B0054601A80FF2D401314C102221
:104D0000FCF7E4FB0FF2D8000088ADF800000020AB
:104D1000012D26D0022D44D0042D18BF082D1DD002
:104D2000102D47D161682268D20143D501A8C1F393
:104D30008342C903105C09D561686B46C1F34041E9
:104D4000214AC95CB2FBF1F1484301E01F494843E5
:104D5000616849022ED44000032129E0FFF7FEFEDE
:104D600028E0216A40F202320A40B2F5817F08BF92
:104D70004FF400401ED001F44072B2F5007F05D11F
:104D8000616A890716D549F6404013E001F4407185
:104D9000B1F5407F0ED1216889030BD54FF2244035
:104DA00008E0FFF70DFF6168C1F38131491C49003C
:104DB000B0FBF1F005B030BD0410024000700040BF
:104DC000400442420010024000127A0000093D00F7
:104DD00002030405060708090A0B0C0D0E0F10103C
:104DE000010200000901002806D52E4A00F00F003C
:104DF000801800F8041C70472B4A815470472B49D7
:104E00000A684FF6FF031A4000F0070042EA00204C
:104E1000274A10430860704738B5244B1B68C3F31A
:104E20000223C3F10704052C28BF04241D1D072DF0
:104E300034BF0023DB1E012505FA04F4641E214063
:104E4000994005FA03F35B1E1A401143BDE8344054
:104E5000C8E7012100F01F029140164AFFE7400910
:104E600042F82010704710B5401EB0F1807F01D38A
:104E7000012010BD104C60600F214FF0FF30FFF794
:104E8000B1FF0020A06007202060002010BD0A496B
:104E9000042808680CBF40F0040020F004000860FB
:104EA0007047000018ED00E000E400E00CED00E0C9
:104EB0000000FA0500E100E010E000E080B500F03D
:104EC00001F801BD70470000D960002180F83C1056
:104ED000002010BD10B590F83C20012A01D102201D
:104EE00010BD012280F83C20CB688C688A6923F4CD
:104EF000407323434C6823F4806323430C6823F4FA
:104F0000006323430C69496923F48053234323F44A
:104F10000053194321F48041114321F4004111430E
:104F200002685164D1E730B500F13C021378012BDF
:104F300001D1022030BD0123137002235370036896
:104F40005C6824F070045C6003685C680D682C4346
:104F50005C6003689C6824F080049C60006883683F
:104F6000496819438160012050700020107030BDE5
:104F70007047704780B5DFF8EC02016841F001012D
:104F80000160016801F0010100910099416841F060
:104F900080514160406800F08050009000980320EC
:104FA000FFF72DFF002200216FF00B00FFF734FF09
:104FB000002200216FF00A00FFF72EFF00220021DF
:104FC0006FF00900FFF728FF002200216FF00400B6
:104FD000FFF722FF002200216FF00300FFF71CFF04
:104FE000002200216FF00100FFF716FF00220021D0
:104FF0004FF0FF30FFF710FF9B48016821F0E061A0
:1050000041F08061016001BD00689849884200D08C
:10501000704700B5934885B0016841F400710160A4
:1050200001A9006800F4007000900098022001902F
:10503000032002908E48FEF7A3F905B000BD00687A
:105040008C49884200D0704710B58B488B4C86B095
:10505000016841F00071016001A9006800F0007072
:10506000009000984FF48070019000F0DEF84FF44B
:105070000070019001A900F0E6F87B48016821F476
:10508000C04141F0E06141F4804101600022002113
:105090001320FFF7C1FE1320FFF7DBFE00220021E3
:1050A0001420FFF7B9FE1420FFF7D3FE06B010BDA1
:1050B00080B50068724A6B49904207D1086840F495
:1050C00000600860086800F4006009E06D4A9042E2
:1050D00009D1486840F002004860486800F00200CA
:1050E0000090009801BD684A904212D1486840F093
:1050F000200048600022486800F020000090002155
:1051000000983720FFF788FEBDE802403720FFF700
:10511000A0BE01BD00B585B00168594A544891420E
:1051200004D14FF4807100F014F80EE0554A91421A
:105130000DD1C02100F00DF8FEF722F903200090F8
:1051400069460220019003904C48FEF719F905B01A
:1051500000BD00910221019103916946704730B56D
:1051600085B00068494A404C3E4990421DD10868CC
:10517000424D40F480400860086800F48040009090
:1051800001A90098402000F056F8802000F062F855
:10519000206840F0E06040F0040020600022002120
:1051A0002520FFF739FE25201CE0394A90421CD10A
:1051B00048682F4C40F400304860486800F40030E4
:1051C000009001A900980420019000F03CF808200C
:1051D000019001A900F029F8002200212620FFF704
:1051E0001BFE2620FFF735FE1DE02A4A90421AD109
:1051F0004868294D40F480204860486800F48020C9
:10520000009001A900984FF4806000F014F84FF46A
:10521000006000F01FF8206820F0300040F0E060EF
:1052200040F01000206005B030BD002002900390D7
:105230002046FEF7A5B801900220029003200490BA
:105240002846FEF79DB802200290032004902046D5
:10525000FEF796B8019001A900200290039028461D
:10526000FEF78EB8181002400400014000240140EF
:1052700000080140006400401C100240000C014086
:10528000002C0140000400400014004000380140A0
:10529000004400400048004000100140F8B590F87C
:1052A00021200024022A00F1340103D004204860A8
:1052B000012462E00268DFF8CC70136823F00E036B
:1052C00013604FF48055026813685B085B0013603D
:1052D0004FF480320368BB424FF4807619D3DFF875
:1052E000A070BB4208BF012210D0DFF89C70BB4207
:1052F00008BF10220AD0DFF89470BB4208BF3246C4
:1053000004D0DFF88C60B34208BF2A46DFF884304F
:1053100029E0DFF88470BB421ED0DFF88070BB420A
:105320001CD0DFF87C70BB421AD0DFF87860B34243
:105330000EBF2A46DFF87050AB4212D0DFF86C5037
:10534000AB4208BF4FF480120BD0DFF86450AB4281
:1053500007D14FF0807204E0012202E0102200E049
:105360003246DFF850301A60012280F8212080F8A0
:10537000204009680A0018BF88472046F2BD000097
:1053800008040240810002401C0402403004024034
:105390004404024004040240080002401C00024091
:1053A0003000024044000240580002406C000240BD
:1053B000800002400400024000684449884200D056
:1053C0007047F8B5424E434C3778A069E169226ACC
:1053D0002369414D612F48D0642F3FD0652F53D0B2
:1053E000692F59D0702F6AD0712F47D0732F21D0D9
:1053F000742F5BD0772F08BF002B62D1401C0B2885
:10540000A8BF0A20A06100F08BF9A0692168401EA6
:1054100031B9A0614FF4FA602860012020604BE0B0
:10542000A168002948D1A06140F2DC502860012029
:10543000A06041E0002B44D1401E48BF0020A06185
:1054400000F06EF96068002836D1A069401CA061A8
:105450004FF47A702860012060602DE08BBB481CFF
:105460000B28E06107DB0A2004E053BB481EE06123
:1054700001D50020E06100F06AF91DE0501C092808
:10548000206206DB082003E0501E206201D50020C8
:10549000206200F087F90FE06069012802DB00203C
:1054A0006061F1BD401C606106A003E04BB90120C2
:1054B000E06005A0FFF722F800203070F1BD012068
:1054C0006062F1BD69000000540000000038014036
:1054D000F0090020FC0000203C04004000B500BFA3
:1054E000130096469446103928BFA0E80C50FAD80D
:1054F0005FEA417C28BF0CC048BF40F8042BC907B5
:1055000028BF20F8022B48BF00F8012B00BDC1F3D3
:105510000A5240F2FF739A420AD012B14FF0FF30A4
:105520007047090350EA113009D06FF0010070474D
:10553000090350EA113001D0022070470120704762
:105540002DE9F04D1746504A504BFCF7DBF8044666
:105550000D461CD84E4EDFF83C8132464346FCF7E0
:1055600073FA00224C4BFCF7FDFC82468B46324618
:10557000434620462946FCF7F5FC02460B465046BA
:105580005946FCF733FB04460D4647F00107204619
:1055900029460022414BFCF79DF805D301224FF02C
:1055A0007953FCF7AFF853D822462B46FCF74CFA58
:1055B000064688463246434620462946FCF744FACA
:1055C00082468B463648374932464346FCF73CFA1A
:1055D000354A364BFCF7C6FC32464346FCF734FAF4
:1055E000334A344BFCF7BEFC52465B46FCF72CFAC0
:1055F00022462B46FCF7B6FC04460D462E482F49A2
:1056000032464346FCF720FA2D4A2E4BFCF7AAFC03
:1056100032464346FCF718FA2B4A2C4BFCF7A2FC07
:1056200032464346FCF710FA294A2A4BFCF79AFC0B
:1056300032464346FCF708FA0022274BFCF792FC5F
:1056400002460B4620462946FCF7D0FA04460D4692
:10565000B80748BF85F0004517F007000BD00FF2E0
:10566000800101EBC0022B46D2E900012246FCF783
:1056700079FC04460D46380747BF85F000412046B7
:1056800020462946BDE8F08D57CD9E5E1426D13FB9
:10569000AA4C58E87AB6FB3F0000F0BF000040BEBD
:1056A000845D57134B57B03FB2934C19ED5EE43F06
:1056B000BEDE02B90240F83FDE39028FC7C0743F38
:1056C0008AAB1283000CC83F24D7E508B6D8F03F58
:1056D0000F34580E5895FD3F0000F03F00000000C9
:1056E000000000000000000066732D3852C1E03F4A
:1056F000182D4454FB21F93F66732D3852C1F03FF9
:10570000182D4454FB21F93F66732D3852C10040D7
:10571000182D4454FB2109403FD038C6A6F104405F
:1057200016481749026851F82210134A11601549AA
:10573000096800291EBF14490968002906D01349C9
:10574000096819B101680AA0FEF7D8BE7047104871
:105750001049026851F822100F4A116001680A29A5
:1057600034BF0FF2380003A0FEF7C8BE00000000EF
:1057700073256400642564003C040040140100208B
:10578000A0000020FC0000200001002004010020F7
:1057900018010020C000002034040040643025645B
:1057A0000000000006480749026851F82210064A26
:1057B0001160016801A0FEF7A1BE0000442564004D
:1057C0001C01002000000020342C01400E480F4A2C
:1057D000016841F0010101604168114041600C4ADB
:1057E000016811400160016821F480210160416875
:1057F00021F4FE0141604FF41F0181604FF0006011
:105800000449086070470000001002400000FFF8E3
:10581000FFFFF6FE08ED00E00000000000000000C1
:1058200001020304060708097047FEE7FEE7FEE7EA
:10583000FEE770477047704780B5FDF74BFDBDE848
:105840000140FFF73BBB00E000BF0648FEF799B9F7
:105850000548FDF76EBB0548FDF76BBB0448FEF736
:1058600085BB0000B8080020C80A0020FC08002002
:105870007C09002019E050F8041BCB0744BFA9F1B4
:1058800001035918121F0023042A41F8043BF9D2DE
:105890005FEA827C0B4604D54FF0000CA1F800C0F3
:1058A0009B1CD10744BF0021197050F8042B002A1B
:1058B000E1D1704710B5074979441831064C7C4452
:1058C000163404E00A68081D511888470146A142B1
:1058D000F8D110BD080000002400000099FFFFFF70
:1058E000B00200006008002000000000CBB9FFFFFC
:1058F00074010000000100000000002000F00BF81F
:10590000002801D0FFF7D6FF0020C046C046FCF7B4
:10591000EDFB00F002F80120704700F001B8000034
:105920000746384600F002F8FBE7000080B5C046A5
:10593000C046024A11001820ABBEFBE72600020059
:1059400038B504460D46284600F006F8A84218BFB0
:105950000024204632BD00000149FCF779BB00BF9E
:10596000240100200148804701480047CD57000826
:1059700075590008C046C046C046C046FFF7BEFF86
:105980000000000001020304FFF7FEBFFFF7FEBFA7
:10599000FFF7FEBFFFF7FEBFFFF7FEBFFFF7FEBF3B
:1059A000FFF7FEBFFFF7FEBFFFF7FEBFFFF7FEBF2B
:1059B000FFF7FEBFFFF7FEBFFFF7FEBFFFF7FEBF1B
:1059C000FFF7FEBFFFF7FEBFFFF7FEBFFFF7FEBF0B
:1059D000FFF7FEBFFFF7FEBFFFF7FEBFFFF7FEBFFB
:1059E000FFF7FEBFFFF7FEBFFFF7FEBFFFF7FEBFEB
:1059F000FFF7FEBFFFF7FEBFFFF7FEBFFFF7FEBFDB
:105A0000FFF7FEBFFFF7FEBFFFF7FEBFFFF7FEBFCA
:105A1000FFF7FEBFFFF7FEBFFFF7FEBFFFF7FEBFBA
:105A2000FFF7FEBFFFF7FEBFFFF7FEBFFFF7FEBFAA
:105A3000FFF7FEBFFFF7FEBFFFF7FEBFFFF7FEBF9A
:105A4000FFF7FEBFFFF7FEBFFFF7FEBFFFF7FEBF8A
:105A5000FFF7FEBFFFF7FEBFFFF7FEBFFFF7FEBF7A
:105A6000FFF7FEBF10034C040000B0041003140540
:105A70000000780412DC04100340060000A404F0C7
:105A80000564080700006C0700012188210152917C
:105A90009443270698125904127204528BA4F00200
:105AA00013F2030000C412C6045201CB221008F006
:105AB0000107A24A04DA2128217F6121800C020417
:105AC0000101F4090020440A0020F40904100361D4
:105AD0000100204804F52B2252FF01F11344412C10
